{
  "contractName": "Voting",
  "abi": [
    {
      "inputs": [],
      "payable": false,
      "stateMutability": "nonpayable",
      "type": "constructor"
    },
    {
      "anonymous": false,
      "inputs": [
        {
          "indexed": false,
          "internalType": "uint256",
          "name": "_electionId",
          "type": "uint256"
        },
        {
          "indexed": false,
          "internalType": "uint256",
          "name": "_teamId",
          "type": "uint256"
        },
        {
          "indexed": false,
          "internalType": "uint256",
          "name": "teamCount",
          "type": "uint256"
        },
        {
          "indexed": false,
          "internalType": "uint256",
          "name": "totalCount",
          "type": "uint256"
        },
        {
          "indexed": false,
          "internalType": "uint256",
          "name": "castAt",
          "type": "uint256"
        }
      ],
      "name": "Cast",
      "type": "event"
    },
    {
      "anonymous": false,
      "inputs": [
        {
          "indexed": false,
          "internalType": "uint256",
          "name": "_electionId",
          "type": "uint256"
        },
        {
          "indexed": false,
          "internalType": "uint256",
          "name": "_winningTeamId",
          "type": "uint256"
        }
      ],
      "name": "ElectionEnded",
      "type": "event"
    },
    {
      "constant": true,
      "inputs": [],
      "name": "aspirantCount",
      "outputs": [
        {
          "internalType": "uint256",
          "name": "",
          "type": "uint256"
        }
      ],
      "payable": false,
      "stateMutability": "view",
      "type": "function"
    },
    {
      "constant": true,
      "inputs": [
        {
          "internalType": "address",
          "name": "",
          "type": "address"
        }
      ],
      "name": "aspirants",
      "outputs": [
        {
          "internalType": "address",
          "name": "aspirantId",
          "type": "address"
        },
        {
          "internalType": "string",
          "name": "name",
          "type": "string"
        },
        {
          "internalType": "uint256",
          "name": "addedAt",
          "type": "uint256"
        },
        {
          "internalType": "uint256",
          "name": "updatedAt",
          "type": "uint256"
        }
      ],
      "payable": false,
      "stateMutability": "view",
      "type": "function"
    },
    {
      "constant": true,
      "inputs": [],
      "name": "creator",
      "outputs": [
        {
          "internalType": "address",
          "name": "",
          "type": "address"
        }
      ],
      "payable": false,
      "stateMutability": "view",
      "type": "function"
    },
    {
      "constant": true,
      "inputs": [],
      "name": "electionCount",
      "outputs": [
        {
          "internalType": "uint256",
          "name": "",
          "type": "uint256"
        }
      ],
      "payable": false,
      "stateMutability": "view",
      "type": "function"
    },
    {
      "constant": true,
      "inputs": [
        {
          "internalType": "uint256",
          "name": "",
          "type": "uint256"
        }
      ],
      "name": "elections",
      "outputs": [
        {
          "internalType": "uint256",
          "name": "electionId",
          "type": "uint256"
        },
        {
          "internalType": "string",
          "name": "name",
          "type": "string"
        },
        {
          "internalType": "uint256",
          "name": "start_timestamp",
          "type": "uint256"
        },
        {
          "internalType": "uint256",
          "name": "end_timestamp",
          "type": "uint256"
        },
        {
          "internalType": "uint256",
          "name": "voteCount",
          "type": "uint256"
        },
        {
          "internalType": "uint256",
          "name": "teamCount",
          "type": "uint256"
        },
        {
          "internalType": "uint256",
          "name": "tokenCount",
          "type": "uint256"
        },
        {
          "internalType": "bool",
          "name": "ended",
          "type": "bool"
        },
        {
          "internalType": "uint256",
          "name": "addedAt",
          "type": "uint256"
        },
        {
          "internalType": "uint256",
          "name": "updatedAt",
          "type": "uint256"
        }
      ],
      "payable": false,
      "stateMutability": "view",
      "type": "function"
    },
    {
      "constant": false,
      "inputs": [
        {
          "internalType": "uint256",
          "name": "_electionId",
          "type": "uint256"
        },
        {
          "internalType": "string",
          "name": "_name",
          "type": "string"
        },
        {
          "internalType": "uint256",
          "name": "_start_timestamp",
          "type": "uint256"
        },
        {
          "internalType": "uint256",
          "name": "_end_timestamp",
          "type": "uint256"
        }
      ],
      "name": "setElection",
      "outputs": [],
      "payable": false,
      "stateMutability": "nonpayable",
      "type": "function"
    },
    {
      "constant": false,
      "inputs": [
        {
          "internalType": "address",
          "name": "_aspirantAddress",
          "type": "address"
        },
        {
          "internalType": "string",
          "name": "_name",
          "type": "string"
        }
      ],
      "name": "setAspirant",
      "outputs": [],
      "payable": false,
      "stateMutability": "nonpayable",
      "type": "function"
    },
    {
      "constant": false,
      "inputs": [
        {
          "internalType": "uint256",
          "name": "_electionId",
          "type": "uint256"
        },
        {
          "internalType": "uint256",
          "name": "_teamId",
          "type": "uint256"
        },
        {
          "internalType": "string",
          "name": "_name",
          "type": "string"
        },
        {
          "internalType": "address",
          "name": "_chairmanId",
          "type": "address"
        },
        {
          "internalType": "address",
          "name": "_secGenId",
          "type": "address"
        },
        {
          "internalType": "address",
          "name": "_treasurerId",
          "type": "address"
        }
      ],
      "name": "setTeam",
      "outputs": [],
      "payable": false,
      "stateMutability": "nonpayable",
      "type": "function"
    },
    {
      "constant": false,
      "inputs": [
        {
          "internalType": "uint256",
          "name": "_electionId",
          "type": "uint256"
        },
        {
          "internalType": "string",
          "name": "_token",
          "type": "string"
        }
      ],
      "name": "setVotingToken",
      "outputs": [],
      "payable": false,
      "stateMutability": "nonpayable",
      "type": "function"
    },
    {
      "constant": false,
      "inputs": [
        {
          "internalType": "uint256",
          "name": "_electionId",
          "type": "uint256"
        },
        {
          "internalType": "uint256",
          "name": "_teamId",
          "type": "uint256"
        },
        {
          "internalType": "string",
          "name": "_votingToken",
          "type": "string"
        }
      ],
      "name": "cast",
      "outputs": [],
      "payable": false,
      "stateMutability": "nonpayable",
      "type": "function"
    },
    {
      "constant": true,
      "inputs": [
        {
          "internalType": "uint256",
          "name": "_electionId",
          "type": "uint256"
        }
      ],
      "name": "winner",
      "outputs": [
        {
          "internalType": "uint256",
          "name": "_winningTeamId",
          "type": "uint256"
        }
      ],
      "payable": false,
      "stateMutability": "view",
      "type": "function"
    },
    {
      "constant": false,
      "inputs": [
        {
          "internalType": "uint256",
          "name": "_electionId",
          "type": "uint256"
        }
      ],
      "name": "endElection",
      "outputs": [],
      "payable": false,
      "stateMutability": "nonpayable",
      "type": "function"
    },
    {
      "constant": true,
      "inputs": [
        {
          "internalType": "uint256",
          "name": "_electionId",
          "type": "uint256"
        },
        {
          "internalType": "uint256",
          "name": "_teamId",
          "type": "uint256"
        }
      ],
      "name": "getTeam",
      "outputs": [
        {
          "internalType": "uint256",
          "name": "teamId",
          "type": "uint256"
        },
        {
          "internalType": "string",
          "name": "name",
          "type": "string"
        },
        {
          "internalType": "address",
          "name": "chairmanId",
          "type": "address"
        },
        {
          "internalType": "address",
          "name": "secGenId",
          "type": "address"
        },
        {
          "internalType": "address",
          "name": "treasurerId",
          "type": "address"
        },
        {
          "internalType": "uint256",
          "name": "votes",
          "type": "uint256"
        },
        {
          "internalType": "uint256",
          "name": "addedAt",
          "type": "uint256"
        },
        {
          "internalType": "uint256",
          "name": "updatedAt",
          "type": "uint256"
        }
      ],
      "payable": false,
      "stateMutability": "view",
      "type": "function"
    },
    {
      "constant": true,
      "inputs": [
        {
          "internalType": "uint256",
          "name": "_electionId",
          "type": "uint256"
        },
        {
          "internalType": "string",
          "name": "_token",
          "type": "string"
        }
      ],
      "name": "getBallot",
      "outputs": [
        {
          "internalType": "uint256",
          "name": "teamId",
          "type": "uint256"
        },
        {
          "internalType": "bytes32",
          "name": "votingToken",
          "type": "bytes32"
        },
        {
          "internalType": "bool",
          "name": "voted",
          "type": "bool"
        },
        {
          "internalType": "uint256",
          "name": "addedAt",
          "type": "uint256"
        },
        {
          "internalType": "uint256",
          "name": "updatedAt",
          "type": "uint256"
        }
      ],
      "payable": false,
      "stateMutability": "view",
      "type": "function"
    }
  ],
  "bytecode": "0x60806040526000600155600060025534801561001a57600080fd5b50600080546001600160a01b0319163317905561218b8061003c6000396000f3fe608060405234801561001057600080fd5b50600436106100ea5760003560e01c80635a3c213a1161008c578063997d283011610066578063997d283014610698578063998d1ee0146106a05780639c98bcbb14610750578063a017fede1461076d576100ea565b80635a3c213a1461043a5780635e6fef01146104ea5780637babffed146105c2576100ea565b80631ea91057116100c85780631ea910571461014a5780633b3c11fa1461020f5780635693a002146102bc5780635993833114610370576100ea565b806302d05d3f146100ef5780631a806ae6146101135780631cbeae5e1461012d575b600080fd5b6100f761086f565b604080516001600160a01b039092168252519081900360200190f35b61011b61087e565b60408051918252519081900360200190f35b61011b6004803603602081101561014357600080fd5b5035610884565b6101706004803603602081101561016057600080fd5b50356001600160a01b03166109fd565b60405180856001600160a01b03166001600160a01b0316815260200180602001848152602001838152602001828103825285818151815260200191508051906020019080838360005b838110156101d15781810151838201526020016101b9565b50505050905090810190601f1680156101fe5780820380516001836020036101000a031916815260200191505b509550505050505060405180910390f35b6102ba6004803603604081101561022557600080fd5b81359190810190604081016020820135600160201b81111561024657600080fd5b82018360208201111561025857600080fd5b803590602001918460018302840111600160201b8311171561027957600080fd5b91908080601f016020809104026020016040519081016040528093929190818152602001838380828437600092019190915250929550610abd945050505050565b005b6102ba600480360360408110156102d257600080fd5b6001600160a01b038235169190810190604081016020820135600160201b8111156102fc57600080fd5b82018360208201111561030e57600080fd5b803590602001918460018302840111600160201b8311171561032f57600080fd5b91908080601f016020809104026020016040519081016040528093929190818152602001838380828437600092019190915250929550610d30945050505050565b6102ba600480360360c081101561038657600080fd5b813591602081013591810190606081016040820135600160201b8111156103ac57600080fd5b8201836020820111156103be57600080fd5b803590602001918460018302840111600160201b831117156103df57600080fd5b91908080601f016020809104026020016040519081016040528093929190818152602001838380828437600092019190915250929550506001600160a01b03833581169450602084013581169360400135169150610e839050565b6102ba6004803603608081101561045057600080fd5b81359190810190604081016020820135600160201b81111561047157600080fd5b82018360208201111561048357600080fd5b803590602001918460018302840111600160201b831117156104a457600080fd5b91908080601f0160208091040260200160405190810160405280939291908181526020018383808284376000920191909152509295505082359350505060200135611300565b6105076004803603602081101561050057600080fd5b5035611557565b604051808b8152602001806020018a81526020018981526020018881526020018781526020018681526020018515151515815260200184815260200183815260200182810382528b818151815260200191508051906020019080838360005b8381101561057e578181015183820152602001610566565b50505050905090810190601f1680156105ab5780820380516001836020036101000a031916815260200191505b509b50505050505050505050505060405180910390f35b61066d600480360360408110156105d857600080fd5b81359190810190604081016020820135600160201b8111156105f957600080fd5b82018360208201111561060b57600080fd5b803590602001918460018302840111600160201b8311171561062c57600080fd5b91908080601f016020809104026020016040519081016040528093929190818152602001838380828437600092019190915250929550611636945050505050565b6040805195865260208601949094529115158484015260608401526080830152519081900360a00190f35b61011b61174d565b6102ba600480360360608110156106b657600080fd5b813591602081013591810190606081016040820135600160201b8111156106dc57600080fd5b8201836020820111156106ee57600080fd5b803590602001918460018302840111600160201b8311171561070f57600080fd5b91908080601f016020809104026020016040519081016040528093929190818152602001838380828437600092019190915250929550611753945050505050565b6102ba6004803603602081101561076657600080fd5b5035611b4a565b6107906004803603604081101561078357600080fd5b5080359060200135611d47565b6040518089815260200180602001886001600160a01b03166001600160a01b03168152602001876001600160a01b03166001600160a01b03168152602001866001600160a01b03166001600160a01b03168152602001858152602001848152602001838152602001828103825289818151815260200191508051906020019080838360005b8381101561082d578181015183820152602001610815565b50505050905090810190601f16801561085a5780820380516001836020036101000a031916815260200191505b50995050505050505050505060405180910390f35b6000546001600160a01b031681565b60025481565b600081806108c7576040805162461bcd60e51b815260206004820152601a602482015260008051602061210e833981519152604482015290519081900360640190fd5b60008381526003602052604090205483908114610926576040805162461bcd60e51b815260206004820152601860248201527722b632b1ba34b7b7103237b2b9903737ba1032bc34b9ba1760411b604482015290519081900360640190fd5b60008481526003602052604090206007015460ff16610981576040805162461bcd60e51b815260206004820152601260248201527122b632b1ba34b7b7103737ba1037bb32b91760711b604482015290519081900360640190fd5b6000805b6000868152600360205260409020600a01548110156109f4576000868152600360209081526040808320848452600b019091529020600501548210156109ec576000868152600360209081526040808320848452600b019091529020600501549094509050835b600101610985565b50505050919050565b6004602090815260009182526040918290208054600180830180548651600261010094831615949094026000190190911692909204601f81018690048602830186019096528582526001600160a01b03909216949293909290830182828015610aa75780601f10610a7c57610100808354040283529160200191610aa7565b820191906000526020600020905b815481529060010190602001808311610a8a57829003601f168201915b5050505050908060020154908060030154905084565b6000546001600160a01b03163314610b0a576040805162461bcd60e51b815260206004820152601f6024820152600080516020612072833981519152604482015290519081900360640190fd5b8180610b4b576040805162461bcd60e51b815260206004820152601a602482015260008051602061210e833981519152604482015290519081900360640190fd5b60008381526003602052604090206002015442908110610b9c5760405162461bcd60e51b81526004018080602001828103825260258152602001806120296025913960400191505060405180910390fd5b6000836040516020018080602001828103825283818151815260200191508051906020019080838360005b83811015610bdf578181015183820152602001610bc7565b50505050905090810190601f168015610c0c5780820380516001836020036101000a031916815260200191505b5060408051601f19818403018152918152815160209283012060008b815260038452828120828252600c019093529120600101549094508414159250610c9c915050576040805162461bcd60e51b815260206004820152601b60248201527f566f74696e6720746f6b656e20616c72656164792061646465642e0000000000604482015290519081900360640190fd5b6000858152600360208181526040808420600681018054835160a081018552908152808501888152818501888152606083018b8152608084018c81529a8a52600c86018852958920925183559051600180840191909155905160028301805460ff19169115159190911790559351818701559651600490970196909655989093525281540190556009909301929092555050565b6000546001600160a01b03163314610d7d576040805162461bcd60e51b815260206004820152601f6024820152600080516020612072833981519152604482015290519081900360640190fd5b6001600160a01b038083166000818152600460205260409020544292161415610df3576001600160a01b03831660009081526004602090815260409091208351610dcf92600190920191850190611ebf565b506001600160a01b0383166000908152600460205260409020600301819055610e7e565b604080516080810182526001600160a01b0385811680835260208084018781528486018790526060850187905260009283526004825294909120835181546001600160a01b03191693169290921782559251805192939192610e5b9260018501920190611ebf565b506040820151600280830191909155606090920151600390910155805460010190555b505050565b6000546001600160a01b03163314610ed0576040805162461bcd60e51b815260206004820152601f6024820152600080516020612072833981519152604482015290519081900360640190fd5b8580610f11576040805162461bcd60e51b815260206004820152601a602482015260008051602061210e833981519152604482015290519081900360640190fd5b60008781526003602052604090205487908114610f70576040805162461bcd60e51b815260206004820152601860248201527722b632b1ba34b7b7103237b2b9903737ba1032bc34b9ba1760411b604482015290519081900360640190fd5b8680610fb1576040805162461bcd60e51b815260206004820152601a602482015260008051602061210e833981519152604482015290519081900360640190fd5b600089815260036020526040902060020154429081106110025760405162461bcd60e51b81526004018080602001828103825260258152602001806120296025913960400191505060405180910390fd5b6001600160a01b038088166000818152600460205260409020549091161461105b5760405162461bcd60e51b81526004018080602001828103825260288152602001806120926028913960400191505060405180910390fd5b6001600160a01b03808716600081815260046020526040902054909116146110b45760405162461bcd60e51b81526004018080602001828103825260328152602001806120dc6032913960400191505060405180910390fd5b6001600160a01b038086166000818152600460205260409020549091161461110d5760405162461bcd60e51b815260040180806020018281038252602981526020018061212e6029913960400191505060405180910390fd5b60008a81526003602090815260408083208c8452600b019091529020548914156111ca5760008a81526003602090815260408083208c8452600b0182529091208951611161926001909201918b0190611ebf565b5060008a81526003602081815260408084208d8552600b019091529091206002810180546001600160a01b038b81166001600160a01b03199283161790925592820180548a831690851617905560048201805491891691909316179091556007018190556112f4565b60008a8152600360209081526040808320600a8101805460018181018355918652848620018e90558251610100810184528e81528085018e81526001600160a01b03808f16838701528d811660608401528c16608083015260a0820187905260c0820188905260e082018890528f8752600b9093018552929094208251815590518051929491936112619392850192910190611ebf565b506040828101516002830180546001600160a01b03199081166001600160a01b03938416179091556060850151600380860180548416928516929092179091556080860151600486018054909316931692909217905560a084015160058085019190915560c0850151600685015560e09094015160079093019290925560008d8152602092909252902001805460010190555b50505050505050505050565b8380611341576040805162461bcd60e51b815260206004820152601a602482015260008051602061210e833981519152604482015290519081900360640190fd5b6000546001600160a01b0316331461138e576040805162461bcd60e51b815260206004820152601f6024820152600080516020612072833981519152604482015290519081900360640190fd5b60008581526003602052604090205442908614156114445760008681526003602052604090206002015481106113f55760405162461bcd60e51b81526004018080602001828103825260258152602001806120296025913960400191505060405180910390fd5b6000868152600360209081526040909120865161141a92600190920191880190611ebf565b5060008681526003602081905260409091206002810186905590810184905560090181905561154f565b60408051610160810182528781526020808201888152828401889052606083810188905260006080850181905260a0850181905260c0850181905260e085018190526101008501879052610120850187905261014085018290528b81526003845294909420835181559051805191926114c592600185019290910190611ebf565b5060408201516002820155606082015160038201556080820151600482015560a0820151600582015560c0820151600682015560e082015160078201805460ff191691151591909117905561010082015160088201556101208201516009820155610140820151805161154291600a840191602090910190611f3d565b5050600180548101905550505b505050505050565b6003602090815260009182526040918290208054600180830180548651600293821615610100026000190190911692909204601f8101869004860283018601909652858252919492939092908301828280156115f45780601f106115c9576101008083540402835291602001916115f4565b820191906000526020600020905b8154815290600101906020018083116115d757829003601f168201915b5050505060028301546003840154600485015460058601546006870154600788015460088901546009909901549798959794965092949193909260ff1691908a565b6000806000806000611646611f77565b60036000898152602001908152602001600020600c016000886040516020018080602001828103825283818151815260200191508051906020019080838360005b8381101561169f578181015183820152602001611687565b50505050905090810190601f1680156116cc5780820380516001836020036101000a031916815260200191505b5060408051808303601f190181529181528151602092830120865285820196909652938501600020855160a08101875281548082526001830154968201879052600283015460ff16151597820188905260038301546060830181905260049093015460809092018290529f959e50959c509a50939850919650505050505050565b60015481565b8280611794576040805162461bcd60e51b815260206004820152601a602482015260008051602061210e833981519152604482015290519081900360640190fd5b82806117d5576040805162461bcd60e51b815260206004820152601a602482015260008051602061210e833981519152604482015290519081900360640190fd5b60008581526003602052604090205485908114611834576040805162461bcd60e51b815260206004820152601860248201527722b632b1ba34b7b7103237b2b9903737ba1032bc34b9ba1760411b604482015290519081900360640190fd5b600086815260036020526040902060020154429081108015906118695750600087815260036020819052604090912001548111155b6118ba576040805162461bcd60e51b815260206004820152601a60248201527f4e6f74207468652074696d6520746f206361737420766f746573000000000000604482015290519081900360640190fd5b6000856040516020018080602001828103825283818151815260200191508051906020019080838360005b838110156118fd5781810151838201526020016118e5565b50505050905090810190601f16801561192a5780820380516001836020036101000a031916815260200191505b5060408051601f19818403018152918152815160209283012060008e815260038452828120828252600c01909352912060010154909450841492506119b9915050576040805162461bcd60e51b815260206004820152601c60248201527f566f74696e6720746f6b656e20646f6573206e6f742065786973742e00000000604482015290519081900360640190fd5b6000888152600360209081526040808320848452600c0190915290206002015460ff1615611a185760405162461bcd60e51b81526004018080602001828103825260228152602001806120ba6022913960400191505060405180910390fd5b60008881526003602090815260408083208a8452600b019091529020548714611a7f576040805162461bcd60e51b81526020600482015260146024820152732a32b0b6903237b2b9903737ba1032bc34b9ba1760611b604482015290519081900360640190fd5b6000888152600360208181526040808420858552600c810183528185208c815560028101805460ff1916600190811790915560049182018990558d8752600b830185528387206005810180548301815560079091018a9055918301805490910190819055600990920188905554948d905292825280518c81529182018b90528181019390935260608101919091526080810184905290517f52d5c01ece1a2c78d4c9854554a1fe8a1c5f98f759107e2f3bee72d02a16fcd59181900360a00190a15050505050505050565b6000546001600160a01b03163314611b97576040805162461bcd60e51b815260206004820152601f6024820152600080516020612072833981519152604482015290519081900360640190fd5b8080611bd8576040805162461bcd60e51b815260206004820152601a602482015260008051602061210e833981519152604482015290519081900360640190fd5b60008281526003602052604090205482908114611c37576040805162461bcd60e51b815260206004820152601860248201527722b632b1ba34b7b7103237b2b9903737ba1032bc34b9ba1760411b604482015290519081900360640190fd5b600083815260036020819052604090912001544211611c92576040805162461bcd60e51b815260206004820152601260248201527122b632b1ba34b7b7103737ba1037bb32b91760711b604482015290519081900360640190fd5b60008381526003602052604090206007015460ff1615611ce35760405162461bcd60e51b815260040180806020018281038252602481526020018061204e6024913960400191505060405180910390fd5b6000838152600360205260409020600701805460ff191660011790557f32e2c12037f9600b91a766ce53eab6909f3bdb865851cd9a8c7fafbdf249a9ce83611d2a81610884565b6040805192835260208301919091528051918290030190a1505050565b60006060600080600080600080611d5c611fab565b60008b81526003602090815260408083208d8452600b018252918290208251610100808201855282548252600180840180548751600293821615909402600019011691909104601f8101869004860283018601909652858252919492938581019391929190830182828015611e125780601f10611de757610100808354040283529160200191611e12565b820191906000526020600020905b815481529060010190602001808311611df557829003601f168201915b505050918352505060028201546001600160a01b039081166020808401919091526003840154821660408085019190915260048501549092166060808501919091526005850154608080860191909152600686015460a08087019190915260079096015460c095860152865192870151938701519187015190870151958701519487015160e090970151929f50929d509b5090995091975095509093509150509295985092959890939650565b828054600181600116156101000203166002900490600052602060002090601f016020900481019282601f10611f0057805160ff1916838001178555611f2d565b82800160010185558215611f2d579182015b82811115611f2d578251825591602001919060010190611f12565b50611f3992915061200b565b5090565b828054828255906000526020600020908101928215611f2d5791602002820182811115611f2d578251825591602001919060010190611f12565b6040518060a00160405280600081526020016000801916815260200160001515815260200160008152602001600081525090565b604051806101000160405280600081526020016060815260200160006001600160a01b0316815260200160006001600160a01b0316815260200160006001600160a01b031681526020016000815260200160008152602001600081525090565b61202591905b80821115611f395760008155600101612011565b9056fe456c656374696f6e20686173206569746865722073746172746564206f7220656e6465642e656e64456c656374696f6e2068617320616c7265616479206265656e2063616c6c65642e4f6e6c79207468652043726561746f722063616e2063616c6c20746869732e0043686169726d616e494420646f6573206e6f7420657869737420696e206f7572207265636f726473566f7465722068617320616c7265616479206361737420746865697220766f74652e5365637265746172792047656e6572616c20494420646f6573206e6f7420657869737420696e206f7572207265636f7264734944732073686f756c64206e6f7420657175616c207a65726f2e000000000000547265617375726572494420646f6573206e6f7420657869737420696e206f7572207265636f726473a265627a7a72315820b96959b69e526403fc4143bcb8b30386a88c3eba4dd5ee769cc238a1c6f91b8164736f6c63430005100032",
  "source": "pragma solidity >=0.4.21 <0.7.0;\n\ncontract Voting {\n    address public creator;\n    uint public electionCount = 0;\n    uint public aspirantCount = 0;\n\n    struct Election {\n        uint electionId;\n        string name;\n        uint start_timestamp;\n        uint end_timestamp;\n        uint voteCount;\n        uint teamCount;\n        uint tokenCount;\n        bool ended;\n        uint addedAt;\n        uint updatedAt;\n        uint[] teamIds; // apparently, you can't loop over mappings or their keys\n        mapping(uint => Team) teams;\n        mapping(bytes32 => Ballot) votingTokens;\n    }\n\n    struct Aspirant {\n        address aspirantId;\n        string name;\n        uint addedAt;\n        uint updatedAt;\n    }\n\n    struct Team {\n        uint teamId;\n        string name;\n        address chairmanId;\n        address secGenId;\n        address treasurerId;\n        uint votes;\n        uint addedAt;\n        uint updatedAt;\n    }\n\n    struct Ballot {\n        uint teamId;\n        bytes32 votingToken;\n        bool cast;\n        uint addedAt;\n        uint updatedAt;\n    }\n\n    mapping(uint => Election) public elections;\n    mapping(address => Aspirant) public aspirants;\n\n    event Cast(uint _electionId, uint _teamId, uint teamCount, uint totalCount, uint castAt);\n    event ElectionEnded(uint _electionId, uint _winningTeamId);\n\n    modifier onlyCreator() {\n        require(msg.sender == creator, \"Only the Creator can call this.\");\n        _;\n    }\n\n    modifier notZero(uint _n) {\n        require(_n != 0, \"IDs should not equal zero.\");\n        _;\n    }\n\n    modifier electionExists(uint _electionId) {\n        require(elections[_electionId].electionId == _electionId, \"Election does not exist.\");\n        _;\n    }\n\n\n    constructor() public {\n        creator = msg.sender;\n    }\n\n    function setElection(uint _electionId, string memory _name, uint _start_timestamp, uint _end_timestamp)\n    public\n    notZero(_electionId)\n    onlyCreator()\n    {\n        uint time = now;\n        if (elections[_electionId].electionId == _electionId) {\n            require(time < elections[_electionId].start_timestamp, \"Election has either started or ended.\");\n            elections[_electionId].name = _name;\n            elections[_electionId].start_timestamp = _start_timestamp;\n            elections[_electionId].end_timestamp = _end_timestamp;\n            elections[_electionId].updatedAt = time;\n        } else {\n            uint[] memory teamIds;\n            elections[_electionId] = Election(_electionId, _name, _start_timestamp, _end_timestamp, 0, 0, 0, false, time, time, teamIds);\n            electionCount++;\n        }\n    }\n\n\n    function setAspirant(address _aspirantAddress, string memory _name)\n    public\n    onlyCreator()\n    {\n        uint time = now;\n        if (aspirants[_aspirantAddress].aspirantId == _aspirantAddress) {\n            aspirants[_aspirantAddress].name = _name;\n            aspirants[_aspirantAddress].updatedAt = time;\n        } else {\n            aspirants[_aspirantAddress] = Aspirant(_aspirantAddress, _name, time, time);\n            aspirantCount++;\n        }\n    }\n\n    function setTeam(uint _electionId, uint _teamId, string memory _name, address _chairmanId, address _secGenId, address _treasurerId)\n    public\n    onlyCreator()\n    notZero(_electionId)\n    electionExists(_electionId)\n    notZero(_teamId)\n    {\n        uint time = now;\n        require(time < elections[_electionId].start_timestamp, \"Election has either started or ended.\");\n        require(aspirants[_chairmanId].aspirantId == _chairmanId, \"ChairmanID does not exist in our records\");\n        require(aspirants[_secGenId].aspirantId == _secGenId, \"Secretary General ID does not exist in our records\");\n        require(aspirants[_treasurerId].aspirantId == _treasurerId, \"TreasurerID does not exist in our records\");\n        if (elections[_electionId].teams[_teamId].teamId == _teamId) {\n            elections[_electionId].teams[_teamId].name = _name;\n            elections[_electionId].teams[_teamId].chairmanId = _chairmanId;\n            elections[_electionId].teams[_teamId].secGenId = _secGenId;\n            elections[_electionId].teams[_teamId].treasurerId = _treasurerId;\n            elections[_electionId].teams[_teamId].updatedAt = time;\n        } else {\n            elections[_electionId].teamIds.push(_teamId);\n            elections[_electionId].teams[_teamId] = Team(_teamId, _name, _chairmanId, _secGenId, _treasurerId, 0, time, time);\n            elections[_electionId].teamCount++;\n        }\n    }\n\n    function setVotingToken(uint _electionId, string memory _token)\n    public\n    onlyCreator()\n    notZero(_electionId)\n    {\n        uint time = now;\n        require(time < elections[_electionId].start_timestamp, \"Election has either started or ended.\");\n        bytes32 _hashedToken = keccak256(abi.encode(_token));\n        require(elections[_electionId].votingTokens[_hashedToken].votingToken != _hashedToken, \"Voting token already added.\");\n        uint tokenCount = elections[_electionId].tokenCount;\n        elections[_electionId].votingTokens[_hashedToken] = Ballot(tokenCount, _hashedToken, false, time, time);\n        elections[_electionId].tokenCount++;\n        elections[_electionId].updatedAt = time;\n    }\n\n    function cast(uint _electionId, uint _teamId, string memory _votingToken)\n    public\n    notZero(_electionId)\n    notZero(_teamId)\n    electionExists(_electionId)\n    {\n        uint time = now;\n        require(time >= elections[_electionId].start_timestamp && time <= elections[_electionId].end_timestamp, \"Not the time to cast votes\");\n        bytes32 _hashedToken = keccak256(abi.encode(_votingToken));\n        require(elections[_electionId].votingTokens[_hashedToken].votingToken == _hashedToken, \"Voting token does not exist.\");\n        require(!elections[_electionId].votingTokens[_hashedToken].cast, \"Voter has already cast their vote.\");\n        require(elections[_electionId].teams[_teamId].teamId == _teamId, \"Team does not exist.\");\n\n        // register the vote\n        elections[_electionId].votingTokens[_hashedToken].teamId = _teamId;\n        elections[_electionId].votingTokens[_hashedToken].cast = true;\n        elections[_electionId].votingTokens[_hashedToken].updatedAt = time;\n        elections[_electionId].teams[_teamId].votes++;\n        elections[_electionId].teams[_teamId].updatedAt = time;\n        elections[_electionId].voteCount++;\n        elections[_electionId].updatedAt = time;\n        emit Cast(_electionId, _teamId, elections[_electionId].teams[_teamId].votes,  elections[_electionId].voteCount, time);\n    }\n\n    function winner(uint _electionId)\n    public\n    notZero(_electionId)\n    electionExists(_electionId)\n    view returns (uint _winningTeamId)\n    {\n        require(elections[_electionId].ended, \"Election not over.\");\n        uint winningVoteCount = 0;\n        for (uint _teamId = 0; _teamId < elections[_electionId].teamIds.length; _teamId++) {\n            if (elections[_electionId].teams[_teamId].votes > winningVoteCount) {\n                winningVoteCount = elections[_electionId].teams[_teamId].votes;\n                _winningTeamId = _teamId;\n            }\n        }\n    }\n\n    function endElection(uint _electionId)\n    public\n    onlyCreator()\n    notZero(_electionId)\n    electionExists(_electionId)\n    {\n        require(now > elections[_electionId].end_timestamp, \"Election not over.\");\n        require(!elections[_electionId].ended, \"endElection has already been called.\");\n        elections[_electionId].ended = true;\n        emit ElectionEnded(_electionId, winner(_electionId));\n    }\n\n    function getTeam(uint _electionId, uint _teamId)\n    public\n    view returns (uint teamId, string memory name, address chairmanId, address secGenId, address treasurerId, uint votes, uint addedAt, uint updatedAt)\n    {\n        Team memory t = elections[_electionId].teams[_teamId];\n        return (t.teamId, t.name, t.chairmanId, t.secGenId, t.treasurerId, t.votes, t.addedAt, t.updatedAt);\n    }\n\n    function getBallot(uint _electionId, string memory _token)\n    public\n    view returns (uint teamId, bytes32 votingToken, bool voted, uint addedAt, uint updatedAt)\n    {\n        Ballot memory b = elections[_electionId].votingTokens[keccak256(abi.encode(_token))];\n        return (b.teamId, b.votingToken, b.cast, b.addedAt, b.updatedAt);\n    }\n}\n",
  "sourcePath": "/home/stephen/Projects/todo/contracts/Voting.sol",
  "compiler": {
    "name": "solc",
    "version": "0.5.16+commit.9c3226ce.Emscripten.clang"
  },
  "schemaVersion": "3.0.23",
  "updatedAt": "2020-03-24T17:55:27.048Z",
  "networkType": "ethereum",
  "devdoc": {
    "methods": {}
  },
  "userdoc": {
    "methods": {}
  }
}