{
  "contractName": "Voting",
  "abi": [
    {
      "constant": true,
      "inputs": [],
      "name": "aspirantCount",
      "outputs": [
        {
          "internalType": "uint256",
          "name": "",
          "type": "uint256"
        }
      ],
      "payable": false,
      "stateMutability": "view",
      "type": "function"
    },
    {
      "constant": true,
      "inputs": [
        {
          "internalType": "address",
          "name": "",
          "type": "address"
        }
      ],
      "name": "aspirants",
      "outputs": [
        {
          "internalType": "address",
          "name": "aspirantId",
          "type": "address"
        },
        {
          "internalType": "string",
          "name": "name",
          "type": "string"
        },
        {
          "internalType": "address",
          "name": "addedBy",
          "type": "address"
        },
        {
          "internalType": "uint256",
          "name": "addedAt",
          "type": "uint256"
        },
        {
          "internalType": "uint256",
          "name": "updatedAt",
          "type": "uint256"
        }
      ],
      "payable": false,
      "stateMutability": "view",
      "type": "function"
    },
    {
      "constant": true,
      "inputs": [],
      "name": "electionCount",
      "outputs": [
        {
          "internalType": "uint256",
          "name": "",
          "type": "uint256"
        }
      ],
      "payable": false,
      "stateMutability": "view",
      "type": "function"
    },
    {
      "constant": true,
      "inputs": [
        {
          "internalType": "uint256",
          "name": "",
          "type": "uint256"
        }
      ],
      "name": "elections",
      "outputs": [
        {
          "internalType": "uint256",
          "name": "electionId",
          "type": "uint256"
        },
        {
          "internalType": "string",
          "name": "electionName",
          "type": "string"
        },
        {
          "internalType": "address",
          "name": "addedBy",
          "type": "address"
        },
        {
          "internalType": "uint256",
          "name": "start_timestamp",
          "type": "uint256"
        },
        {
          "internalType": "uint256",
          "name": "end_timestamp",
          "type": "uint256"
        },
        {
          "internalType": "uint256",
          "name": "voteCount",
          "type": "uint256"
        },
        {
          "internalType": "uint256",
          "name": "teamCount",
          "type": "uint256"
        },
        {
          "internalType": "uint256",
          "name": "tokenCount",
          "type": "uint256"
        },
        {
          "internalType": "uint256",
          "name": "addedAt",
          "type": "uint256"
        },
        {
          "internalType": "uint256",
          "name": "updatedAt",
          "type": "uint256"
        }
      ],
      "payable": false,
      "stateMutability": "view",
      "type": "function"
    },
    {
      "constant": false,
      "inputs": [
        {
          "internalType": "string",
          "name": "_name",
          "type": "string"
        },
        {
          "internalType": "uint256",
          "name": "start_timestamp",
          "type": "uint256"
        },
        {
          "internalType": "uint256",
          "name": "end_timestamp",
          "type": "uint256"
        }
      ],
      "name": "addElection",
      "outputs": [],
      "payable": false,
      "stateMutability": "nonpayable",
      "type": "function"
    },
    {
      "constant": false,
      "inputs": [
        {
          "internalType": "address",
          "name": "_aspirantAddress",
          "type": "address"
        },
        {
          "internalType": "string",
          "name": "_name",
          "type": "string"
        }
      ],
      "name": "addAspirant",
      "outputs": [],
      "payable": false,
      "stateMutability": "nonpayable",
      "type": "function"
    },
    {
      "constant": false,
      "inputs": [
        {
          "internalType": "uint256",
          "name": "_electionId",
          "type": "uint256"
        },
        {
          "internalType": "string",
          "name": "_name",
          "type": "string"
        },
        {
          "internalType": "address",
          "name": "chairmanId",
          "type": "address"
        },
        {
          "internalType": "address",
          "name": "secGenId",
          "type": "address"
        },
        {
          "internalType": "address",
          "name": "treasurerId",
          "type": "address"
        }
      ],
      "name": "addTeam",
      "outputs": [],
      "payable": false,
      "stateMutability": "nonpayable",
      "type": "function"
    },
    {
      "constant": false,
      "inputs": [
        {
          "internalType": "uint256",
          "name": "_electionId",
          "type": "uint256"
        },
        {
          "internalType": "string",
          "name": "_token",
          "type": "string"
        }
      ],
      "name": "addVotingToken",
      "outputs": [],
      "payable": false,
      "stateMutability": "nonpayable",
      "type": "function"
    },
    {
      "constant": false,
      "inputs": [
        {
          "internalType": "uint256",
          "name": "_electionId",
          "type": "uint256"
        },
        {
          "internalType": "uint256",
          "name": "_teamId",
          "type": "uint256"
        },
        {
          "internalType": "string",
          "name": "_votingToken",
          "type": "string"
        }
      ],
      "name": "vote",
      "outputs": [],
      "payable": false,
      "stateMutability": "nonpayable",
      "type": "function"
    },
    {
      "constant": true,
      "inputs": [
        {
          "internalType": "uint256",
          "name": "_electionId",
          "type": "uint256"
        },
        {
          "internalType": "uint256",
          "name": "_teamId",
          "type": "uint256"
        }
      ],
      "name": "getTeam",
      "outputs": [
        {
          "internalType": "uint256",
          "name": "teamId",
          "type": "uint256"
        },
        {
          "internalType": "string",
          "name": "team_name",
          "type": "string"
        },
        {
          "internalType": "address",
          "name": "chairmanId",
          "type": "address"
        },
        {
          "internalType": "address",
          "name": "secGenId",
          "type": "address"
        },
        {
          "internalType": "address",
          "name": "treasurerId",
          "type": "address"
        },
        {
          "internalType": "address",
          "name": "addedBy",
          "type": "address"
        },
        {
          "internalType": "uint256",
          "name": "votes",
          "type": "uint256"
        },
        {
          "internalType": "uint256",
          "name": "addedAt",
          "type": "uint256"
        },
        {
          "internalType": "uint256",
          "name": "updatedAt",
          "type": "uint256"
        }
      ],
      "payable": false,
      "stateMutability": "view",
      "type": "function"
    },
    {
      "constant": true,
      "inputs": [
        {
          "internalType": "uint256",
          "name": "_electionId",
          "type": "uint256"
        },
        {
          "internalType": "string",
          "name": "_token",
          "type": "string"
        }
      ],
      "name": "getBallot",
      "outputs": [
        {
          "internalType": "uint256",
          "name": "teamId",
          "type": "uint256"
        },
        {
          "internalType": "string",
          "name": "votingToken",
          "type": "string"
        },
        {
          "internalType": "bool",
          "name": "cast",
          "type": "bool"
        },
        {
          "internalType": "uint256",
          "name": "addedAt",
          "type": "uint256"
        },
        {
          "internalType": "uint256",
          "name": "updatedAt",
          "type": "uint256"
        }
      ],
      "payable": false,
      "stateMutability": "view",
      "type": "function"
    }
  ],
  "bytecode": "0x608060405260008055600060015534801561001957600080fd5b5061145b806100296000396000f3fe608060405234801561001057600080fd5b50600436106100a95760003560e01c8063997d283011610071578063997d28301461043c578063a017fede14610444578063a1bbfc051461052e578063a3a6ea5d146105de578063c20c016914610692578063e763078214610757576100a9565b80631a806ae6146100ae5780631c484448146100c85780631ea91057146101755780635e6fef01146102535780637babffed14610339575b600080fd5b6100b6610800565b60408051918252519081900360200190f35b610173600480360360408110156100de57600080fd5b81359190810190604081016020820135600160201b8111156100ff57600080fd5b82018360208201111561011157600080fd5b803590602001918460018302840111600160201b8311171561013257600080fd5b91908080601f016020809104026020016040519081016040528093929190818152602001838380828437600092019190915250929550610806945050505050565b005b61019b6004803603602081101561018b57600080fd5b50356001600160a01b0316610919565b60405180866001600160a01b03166001600160a01b0316815260200180602001856001600160a01b03166001600160a01b03168152602001848152602001838152602001828103825286818151815260200191508051906020019080838360005b838110156102145781810151838201526020016101fc565b50505050905090810190601f1680156102415780820380516001836020036101000a031916815260200191505b50965050505050505060405180910390f35b6102706004803603602081101561026957600080fd5b50356109eb565b604051808b8152602001806020018a6001600160a01b03166001600160a01b0316815260200189815260200188815260200187815260200186815260200185815260200184815260200183815260200182810382528b818151815260200191508051906020019080838360005b838110156102f55781810151838201526020016102dd565b50505050905090810190601f1680156103225780820380516001836020036101000a031916815260200191505b509b50505050505050505050505060405180910390f35b6103e46004803603604081101561034f57600080fd5b81359190810190604081016020820135600160201b81111561037057600080fd5b82018360208201111561038257600080fd5b803590602001918460018302840111600160201b831117156103a357600080fd5b91908080601f016020809104026020016040519081016040528093929190818152602001838380828437600092019190915250929550610acd945050505050565b60405180868152602001806020018515151515815260200184815260200183815260200182810382528681815181526020019150805190602001908083836000838110156102145781810151838201526020016101fc565b6100b6610c4b565b6104676004803603604081101561045a57600080fd5b5080359060200135610c51565b604080518a81526001600160a01b03808a16928201929092528782166060820152868216608082015290851660a082015260c0810184905260e08101839052610100810182905261012060208083018281528b51928401929092528a516101408401918c019080838360005b838110156104eb5781810151838201526020016104d3565b50505050905090810190601f1680156105185780820380516001836020036101000a031916815260200191505b509a505050505050505050505060405180910390f35b6101736004803603606081101561054457600080fd5b813591602081013591810190606081016040820135600160201b81111561056a57600080fd5b82018360208201111561057c57600080fd5b803590602001918460018302840111600160201b8311171561059d57600080fd5b91908080601f016020809104026020016040519081016040528093929190818152602001838380828437600092019190915250929550610e52945050505050565b610173600480360360408110156105f457600080fd5b6001600160a01b038235169190810190604081016020820135600160201b81111561061e57600080fd5b82018360208201111561063057600080fd5b803590602001918460018302840111600160201b8311171561065157600080fd5b91908080601f016020809104026020016040519081016040528093929190818152602001838380828437600092019190915250929550610fff945050505050565b610173600480360360a08110156106a857600080fd5b81359190810190604081016020820135600160201b8111156106c957600080fd5b8201836020820111156106db57600080fd5b803590602001918460018302840111600160201b831117156106fc57600080fd5b91908080601f016020809104026020016040519081016040528093929190818152602001838380828437600092019190915250929550506001600160a01b038335811694506020840135811693604001351691506110b59050565b6101736004803603606081101561076d57600080fd5b810190602081018135600160201b81111561078757600080fd5b82018360208201111561079957600080fd5b803590602001918460018302840111600160201b831117156107ba57600080fd5b91908080601f01602080910402602001604051908101604052809392919081815260200183838082843760009201919091525092955050823593505050602001356111f3565b60015481565b60008281526002602081815260408084206007810154825160a081018452818152808501889052808401879052426060820181905260808201529588905293835290518551939493600b90920192869282918401908083835b6020831061087e5780518252601f19909201916020918201910161085f565b51815160209384036101000a60001901801990921691161790529201948552506040519384900381019093208451815584840151805191946108c8945060018601935001906112ea565b506040828101516002838101805460ff191692151592909217909155606084015160038401556080909301516004909201919091556000948552602091909152909220600701805460010190555050565b6003602090815260009182526040918290208054600180830180548651600261010094831615949094026000190190911692909204601f81018690048602830186019096528582526001600160a01b039092169492939092908301828280156109c35780601f10610998576101008083540402835291602001916109c3565b820191906000526020600020905b8154815290600101906020018083116109a657829003601f168201915b505050506002830154600384015460049094015492936001600160a01b039091169290915085565b60026020818152600092835260409283902080546001808301805487519281161561010002600019011695909504601f8101859004850282018501909652858152909491939092909190830182828015610a865780601f10610a5b57610100808354040283529160200191610a86565b820191906000526020600020905b815481529060010190602001808311610a6957829003601f168201915b50505060028401546003850154600486015460058701546006880154600789015460088a01546009909a015498996001600160a01b0390961698949750929550909390928a565b600060606000806000610ade611368565b60026000898152602001908152602001600020600b01876040518082805190602001908083835b60208310610b245780518252601f199092019160209182019101610b05565b518151602093840361010090810a600019908101801990941693909216929092179092529290940196875260408051978890038201882060a0890182528054895260018082018054845160029382161590970290980190971604601f81018490048402850184019092528184529650878201955091939250830182828015610bed5780601f10610bc257610100808354040283529160200191610bed565b820191906000526020600020905b815481529060010190602001808311610bd057829003601f168201915b5050509183525050600282015460ff16151560208083019190915260038301546040808401919091526004909301546060928301528351908401519284015191840151608090940151909c929b509099509197509095509350505050565b60005481565b600060606000806000806000806000610c68611399565b60008c81526002602081815260408084208f8552600a01825292839020835161012081018552815481526001808301805487519281161561010002600019011695909504601f8101859004850282018501909652858152909491938584019391929091830182828015610d1c5780601f10610cf157610100808354040283529160200191610d1c565b820191906000526020600020905b815481529060010190602001808311610cff57829003601f168201915b505050505081526020016002820160009054906101000a90046001600160a01b03166001600160a01b03166001600160a01b031681526020016003820160009054906101000a90046001600160a01b03166001600160a01b03166001600160a01b031681526020016004820160009054906101000a90046001600160a01b03166001600160a01b03166001600160a01b031681526020016005820160009054906101000a90046001600160a01b03166001600160a01b03166001600160a01b0316815260200160068201548152602001600782015481526020016008820154815250509050806000015181602001518260400151836060015184608001518560a001518660c001518760e00151886101000151879750995099509950995099509950995099509950509295985092959850929598565b8160026000858152602001908152602001600020600b01826040518082805190602001908083835b60208310610e995780518252601f199092019160209182019101610e7a565b51815160209384036101000a600019018019909216911617905292019485525060408051948590038201852095909555600088815260028252949094208551600195600b90920194879450925082918401908083835b60208310610f0e5780518252601f199092019160209182019101610eef565b51815160209384036101000a60001901801990921691161790529201948552506040805194859003820185206002908101805460ff191697151597909717909655600089815295825290942085514295600b90920194879450925082918401908083835b60208310610f915780518252601f199092019160209182019101610f72565b51815160209384036101000a60001901801990921691161790529201948552506040805194859003820190942060040194909455505060008581526002808452828220958252600a860184529181206006018054600190810190915595905290525060050180549091019055565b6040805160a0810182526001600160a01b03848116808352602080840186815233858701524260608601819052608086015260009283526003825294909120835181546001600160a01b0319169316929092178255925180519293919261106c92600185019201906112ea565b5060408201516002820180546001600160a01b0319166001600160a01b039092169190911790556060820151600382015560809091015160049091015550506001805481019055565b600085815260026020908152604080832060068101548251610120810184528181528085018a81526001600160a01b03808b16838701528981166060840152881660808301523360a083015260c082018790524260e08301819052610100830152828752600a90930185529290942082518155905180519293919261114092600185019201906112ea565b50604082810151600280840180546001600160a01b039384166001600160a01b0319918216179091556060860151600386018054918516918316919091179055608086015160048601805491851691831691909117905560a08601516005860180549190941691161790915560c084015160068085019190915560e08501516007850155610100909401516008909301929092556000988952602091909152909620909501805460010190555050505050565b60408051610140810182526000805480835260208084018881523385870152606085018890526080850187905260a0850184905260c0850184905260e08501849052426101008601819052610120860152918352600281529390912082518155905180519293919261126b92600185019201906112ea565b5060408201516002820180546001600160a01b0319166001600160a01b03909216919091179055606082015160038201556080820151600482015560a0820151600582015560c0820151600682015560e08201516007820155610100820151600882015561012090910151600990910155505060008054600101905550565b828054600181600116156101000203166002900490600052602060002090601f016020900481019282601f1061132b57805160ff1916838001178555611358565b82800160010185558215611358579182015b8281111561135857825182559160200191906001019061133d565b50611364929150611409565b5090565b6040518060a00160405280600081526020016060815260200160001515815260200160008152602001600081525090565b604051806101200160405280600081526020016060815260200160006001600160a01b0316815260200160006001600160a01b0316815260200160006001600160a01b0316815260200160006001600160a01b031681526020016000815260200160008152602001600081525090565b61142391905b80821115611364576000815560010161140f565b9056fea265627a7a72315820831da1d9f110a59b8e21819ba7d81c329a2146ccad3994d6136872c8b12384bd64736f6c63430005100032",
  "source": "pragma solidity >=0.4.21 <0.7.0;\n\n// a smart contract for \"party block voting\", where parties = teams\n// seriously needs refactoring\ncontract Voting {\n    uint public electionCount = 0;\n    uint public aspirantCount = 0;\n\n    struct Election {\n        uint electionId;\n        string electionName;\n        address addedBy;\n        uint start_timestamp;\n        uint end_timestamp;\n        uint voteCount;\n        uint teamCount;\n        uint tokenCount;\n        uint addedAt;\n        uint updatedAt;\n        mapping(uint => Team) teams;\n        mapping(string => Ballot) votingTokens;\n    }\n\n    struct Aspirant {\n        address aspirantId;\n        string name;\n        address addedBy;\n        uint addedAt;\n        uint updatedAt;\n    }\n\n    struct Team {\n        uint teamId;\n        string team_name;\n        address chairmanId;\n        address secGenId;\n        address treasurerId;\n        address addedBy;\n        uint votes;\n        uint addedAt;\n        uint updatedAt;\n    }\n\n    struct Ballot {\n        uint teamId;\n        string votingToken;\n        bool cast;\n        uint addedAt;\n        uint updatedAt;\n    }\n\n    mapping(uint => Election) public elections;\n    mapping(address => Aspirant) public aspirants;\n\n    function addElection(string memory _name, uint start_timestamp, uint end_timestamp) public {\n        elections[electionCount] = Election(electionCount, _name, msg.sender, start_timestamp, end_timestamp, 0, 0, 0, now, now);\n        electionCount++;\n    }\n\n\n    function addAspirant(address _aspirantAddress, string memory _name) public {\n        aspirants[_aspirantAddress] = Aspirant(_aspirantAddress, _name, msg.sender, now, now);\n        aspirantCount++;\n    }\n\n    function addTeam(uint _electionId, string memory _name, address chairmanId, address secGenId, address treasurerId) public {\n        uint teamCount = elections[_electionId].teamCount;\n        elections[_electionId].teams[teamCount] = Team(teamCount, _name, chairmanId, secGenId, treasurerId, msg.sender, 0, now, now);\n        elections[_electionId].teamCount++;\n    }\n\n    function addVotingToken(uint _electionId, string memory _token) public {\n        uint tokenCount = elections[_electionId].tokenCount;\n        elections[_electionId].votingTokens[_token] = Ballot(tokenCount, _token, false, now, now);\n        elections[_electionId].tokenCount++;\n    }\n\n    function vote(uint _electionId, uint _teamId, string memory _votingToken) public {\n        // require(elections[_electionId].electionId == _electionId, \"Election does not exist.\");\n        // require(elections[_electionId].votingTokens[_votingToken].votingToken == _votingToken, \"Voting token does not exist.\");\n        // require(!elections[_electionId].votingTokens[_votingToken].cast, \"Voter has already cast their vote.\");\n        // require(!elections[_electionId].teams[_teamId], \"Team does not exist.\");\n\n        // register the vote\n        elections[_electionId].votingTokens[_votingToken].teamId = _teamId;\n        elections[_electionId].votingTokens[_votingToken].cast = true;\n        elections[_electionId].votingTokens[_votingToken].updatedAt = now;\n        elections[_electionId].teams[_teamId].votes++;\n        elections[_electionId].voteCount++;\n    }\n\n    function getTeam(uint _electionId, uint _teamId) public view returns (uint teamId, string memory team_name, address chairmanId, address secGenId, \n    address treasurerId, address addedBy, uint votes, uint addedAt, uint updatedAt) {\n\n        Team memory t = elections[_electionId].teams[_teamId];\n        return (t.teamId, t.team_name, t.chairmanId, t.secGenId, t.treasurerId, t.addedBy, t.votes, t.addedAt, t.updatedAt);\n    }\n\n    function getBallot(uint _electionId, string memory _token) public view returns (uint teamId, string memory votingToken, bool cast, \n    uint addedAt, uint updatedAt) {\n        Ballot memory b = elections[_electionId].votingTokens[_token];\n        return (b.teamId, b.votingToken, b.cast, b.addedAt, b.updatedAt);\n    }\n}\n",
  "sourcePath": "/home/stephen/Projects/todo/contracts/Voting.sol",
  "compiler": {
    "name": "solc",
    "version": "0.5.16+commit.9c3226ce.Emscripten.clang"
  },
  "schemaVersion": "3.0.23",
  "updatedAt": "2020-03-18T17:30:21.301Z",
  "networkType": "ethereum",
  "devdoc": {
    "methods": {}
  },
  "userdoc": {
    "methods": {}
  }
}