{
  "contractName": "Voting",
  "abi": [
    {
      "constant": true,
      "inputs": [],
      "name": "aspirantCount",
      "outputs": [
        {
          "internalType": "uint256",
          "name": "",
          "type": "uint256"
        }
      ],
      "payable": false,
      "stateMutability": "view",
      "type": "function"
    },
    {
      "constant": true,
      "inputs": [
        {
          "internalType": "address",
          "name": "",
          "type": "address"
        }
      ],
      "name": "aspirants",
      "outputs": [
        {
          "internalType": "address",
          "name": "aspirantId",
          "type": "address"
        },
        {
          "internalType": "string",
          "name": "name",
          "type": "string"
        },
        {
          "internalType": "address",
          "name": "addedBy",
          "type": "address"
        },
        {
          "internalType": "uint256",
          "name": "addedAt",
          "type": "uint256"
        },
        {
          "internalType": "uint256",
          "name": "updatedAt",
          "type": "uint256"
        }
      ],
      "payable": false,
      "stateMutability": "view",
      "type": "function"
    },
    {
      "constant": true,
      "inputs": [],
      "name": "electionCount",
      "outputs": [
        {
          "internalType": "uint256",
          "name": "",
          "type": "uint256"
        }
      ],
      "payable": false,
      "stateMutability": "view",
      "type": "function"
    },
    {
      "constant": true,
      "inputs": [
        {
          "internalType": "uint256",
          "name": "",
          "type": "uint256"
        }
      ],
      "name": "elections",
      "outputs": [
        {
          "internalType": "uint256",
          "name": "electionId",
          "type": "uint256"
        },
        {
          "internalType": "string",
          "name": "name",
          "type": "string"
        },
        {
          "internalType": "address",
          "name": "addedBy",
          "type": "address"
        },
        {
          "internalType": "uint256",
          "name": "start_timestamp",
          "type": "uint256"
        },
        {
          "internalType": "uint256",
          "name": "end_timestamp",
          "type": "uint256"
        },
        {
          "internalType": "uint256",
          "name": "voteCount",
          "type": "uint256"
        },
        {
          "internalType": "uint256",
          "name": "teamCount",
          "type": "uint256"
        },
        {
          "internalType": "uint256",
          "name": "tokenCount",
          "type": "uint256"
        },
        {
          "internalType": "uint256",
          "name": "addedAt",
          "type": "uint256"
        },
        {
          "internalType": "uint256",
          "name": "updatedAt",
          "type": "uint256"
        }
      ],
      "payable": false,
      "stateMutability": "view",
      "type": "function"
    },
    {
      "constant": false,
      "inputs": [
        {
          "internalType": "uint256",
          "name": "_electionId",
          "type": "uint256"
        },
        {
          "internalType": "string",
          "name": "_name",
          "type": "string"
        },
        {
          "internalType": "uint256",
          "name": "_start_timestamp",
          "type": "uint256"
        },
        {
          "internalType": "uint256",
          "name": "_end_timestamp",
          "type": "uint256"
        }
      ],
      "name": "setElection",
      "outputs": [],
      "payable": false,
      "stateMutability": "nonpayable",
      "type": "function"
    },
    {
      "constant": false,
      "inputs": [
        {
          "internalType": "address",
          "name": "_aspirantAddress",
          "type": "address"
        },
        {
          "internalType": "string",
          "name": "_name",
          "type": "string"
        }
      ],
      "name": "setAspirant",
      "outputs": [],
      "payable": false,
      "stateMutability": "nonpayable",
      "type": "function"
    },
    {
      "constant": false,
      "inputs": [
        {
          "internalType": "uint256",
          "name": "_electionId",
          "type": "uint256"
        },
        {
          "internalType": "uint256",
          "name": "_teamId",
          "type": "uint256"
        },
        {
          "internalType": "string",
          "name": "_name",
          "type": "string"
        },
        {
          "internalType": "address",
          "name": "_chairmanId",
          "type": "address"
        },
        {
          "internalType": "address",
          "name": "_secGenId",
          "type": "address"
        },
        {
          "internalType": "address",
          "name": "_treasurerId",
          "type": "address"
        }
      ],
      "name": "setTeam",
      "outputs": [],
      "payable": false,
      "stateMutability": "nonpayable",
      "type": "function"
    },
    {
      "constant": false,
      "inputs": [
        {
          "internalType": "uint256",
          "name": "_electionId",
          "type": "uint256"
        },
        {
          "internalType": "string",
          "name": "_token",
          "type": "string"
        }
      ],
      "name": "setVotingToken",
      "outputs": [],
      "payable": false,
      "stateMutability": "nonpayable",
      "type": "function"
    },
    {
      "constant": false,
      "inputs": [
        {
          "internalType": "uint256",
          "name": "_electionId",
          "type": "uint256"
        },
        {
          "internalType": "uint256",
          "name": "_teamId",
          "type": "uint256"
        },
        {
          "internalType": "string",
          "name": "_votingToken",
          "type": "string"
        }
      ],
      "name": "cast",
      "outputs": [],
      "payable": false,
      "stateMutability": "nonpayable",
      "type": "function"
    },
    {
      "constant": true,
      "inputs": [
        {
          "internalType": "uint256",
          "name": "_electionId",
          "type": "uint256"
        },
        {
          "internalType": "uint256",
          "name": "_teamId",
          "type": "uint256"
        }
      ],
      "name": "getTeam",
      "outputs": [
        {
          "internalType": "uint256",
          "name": "teamId",
          "type": "uint256"
        },
        {
          "internalType": "string",
          "name": "name",
          "type": "string"
        },
        {
          "internalType": "address",
          "name": "chairmanId",
          "type": "address"
        },
        {
          "internalType": "address",
          "name": "secGenId",
          "type": "address"
        },
        {
          "internalType": "address",
          "name": "treasurerId",
          "type": "address"
        },
        {
          "internalType": "address",
          "name": "addedBy",
          "type": "address"
        },
        {
          "internalType": "uint256",
          "name": "votes",
          "type": "uint256"
        },
        {
          "internalType": "uint256",
          "name": "addedAt",
          "type": "uint256"
        },
        {
          "internalType": "uint256",
          "name": "updatedAt",
          "type": "uint256"
        }
      ],
      "payable": false,
      "stateMutability": "view",
      "type": "function"
    },
    {
      "constant": true,
      "inputs": [
        {
          "internalType": "uint256",
          "name": "_electionId",
          "type": "uint256"
        },
        {
          "internalType": "string",
          "name": "_token",
          "type": "string"
        }
      ],
      "name": "getBallot",
      "outputs": [
        {
          "internalType": "uint256",
          "name": "teamId",
          "type": "uint256"
        },
        {
          "internalType": "string",
          "name": "votingToken",
          "type": "string"
        },
        {
          "internalType": "bool",
          "name": "voted",
          "type": "bool"
        },
        {
          "internalType": "uint256",
          "name": "addedAt",
          "type": "uint256"
        },
        {
          "internalType": "uint256",
          "name": "updatedAt",
          "type": "uint256"
        }
      ],
      "payable": false,
      "stateMutability": "view",
      "type": "function"
    }
  ],
  "bytecode": "0x608060405260008055600060015534801561001957600080fd5b506120f4806100296000396000f3fe608060405234801561001057600080fd5b50600436106100a95760003560e01c80635a3c213a116100715780635a3c213a146103d15780635e6fef01146104815780637babffed14610567578063997d28301461066a578063998d1ee014610672578063a017fede14610722576100a9565b80631a806ae6146100ae5780631ea91057146100c85780633b3c11fa146101a65780635693a002146102535780635993833114610307575b600080fd5b6100b661080c565b60408051918252519081900360200190f35b6100ee600480360360208110156100de57600080fd5b50356001600160a01b0316610812565b60405180866001600160a01b03166001600160a01b0316815260200180602001856001600160a01b03166001600160a01b03168152602001848152602001838152602001828103825286818151815260200191508051906020019080838360005b8381101561016757818101518382015260200161014f565b50505050905090810190601f1680156101945780820380516001836020036101000a031916815260200191505b50965050505050505060405180910390f35b610251600480360360408110156101bc57600080fd5b81359190810190604081016020820135600160201b8111156101dd57600080fd5b8201836020820111156101ef57600080fd5b803590602001918460018302840111600160201b8311171561021057600080fd5b91908080601f0160208091040260200160405190810160405280939291908181526020018383808284376000920191909152509295506108e4945050505050565b005b6102516004803603604081101561026957600080fd5b6001600160a01b038235169190810190604081016020820135600160201b81111561029357600080fd5b8201836020820111156102a557600080fd5b803590602001918460018302840111600160201b831117156102c657600080fd5b91908080601f016020809104026020016040519081016040528093929190818152602001838380828437600092019190915250929550610d05945050505050565b610251600480360360c081101561031d57600080fd5b813591602081013591810190606081016040820135600160201b81111561034357600080fd5b82018360208201111561035557600080fd5b803590602001918460018302840111600160201b8311171561037657600080fd5b91908080601f016020809104026020016040519081016040528093929190818152602001838380828437600092019190915250929550506001600160a01b03833581169450602084013581169360400135169150610e339050565b610251600480360360808110156103e757600080fd5b81359190810190604081016020820135600160201b81111561040857600080fd5b82018360208201111561041a57600080fd5b803590602001918460018302840111600160201b8311171561043b57600080fd5b91908080601f0160208091040260200160405190810160405280939291908181526020018383808284376000920191909152509295505082359350505060200135611263565b61049e6004803603602081101561049757600080fd5b503561145e565b604051808b8152602001806020018a6001600160a01b03166001600160a01b0316815260200189815260200188815260200187815260200186815260200185815260200184815260200183815260200182810382528b818151815260200191508051906020019080838360005b8381101561052357818101518382015260200161050b565b50505050905090810190601f1680156105505780820380516001836020036101000a031916815260200191505b509b50505050505050505050505060405180910390f35b6106126004803603604081101561057d57600080fd5b81359190810190604081016020820135600160201b81111561059e57600080fd5b8201836020820111156105b057600080fd5b803590602001918460018302840111600160201b831117156105d157600080fd5b91908080601f016020809104026020016040519081016040528093929190818152602001838380828437600092019190915250929550611540945050505050565b604051808681526020018060200185151515158152602001848152602001838152602001828103825286818151815260200191508051906020019080838360008381101561016757818101518382015260200161014f565b6100b66116be565b6102516004803603606081101561068857600080fd5b813591602081013591810190606081016040820135600160201b8111156106ae57600080fd5b8201836020820111156106c057600080fd5b803590602001918460018302840111600160201b831117156106e157600080fd5b91908080601f0160208091040260200160405190810160405280939291908181526020018383808284376000920191909152509295506116c4945050505050565b6107456004803603604081101561073857600080fd5b5080359060200135611c95565b604080518a81526001600160a01b03808a16928201929092528782166060820152868216608082015290851660a082015260c0810184905260e08101839052610100810182905261012060208083018281528b51928401929092528a516101408401918c019080838360005b838110156107c95781810151838201526020016107b1565b50505050905090810190601f1680156107f65780820380516001836020036101000a031916815260200191505b509a505050505050505050505060405180910390f35b60015481565b6003602090815260009182526040918290208054600180830180548651600261010094831615949094026000190190911692909204601f81018690048602830186019096528582526001600160a01b039092169492939092908301828280156108bc5780601f10610891576101008083540402835291602001916108bc565b820191906000526020600020905b81548152906001019060200180831161089f57829003601f168201915b505050506002830154600384015460049094015492936001600160a01b039091169290915085565b816109205760405162461bcd60e51b8152600401808060200182810382526026815260200180611ffb6026913960400191505060405180910390fd5b6000828152600260205260409020600301544210610985576040805162461bcd60e51b815260206004820152601d60248201527f456c656374696f6e2068617320616c726561647920737461727465642e000000604482015290519081900360640190fd5b606060026000848152602001908152602001600020600b01826040518082805190602001908083835b602083106109cd5780518252601f1990920191602091820191016109ae565b518151600019602094850361010090810a8201928316921993909316919091179092529490920196875260408051978890038201882060019081018054601f60029382161590980290950190941604948501829004820288018201905283875290945091925050830182828015610a855780601f10610a5a57610100808354040283529160200191610a85565b820191906000526020600020905b815481529060010190602001808311610a6857829003601f168201915b50505050509050816040516020018080602001828103825283818151815260200191508051906020019080838360005b83811015610acd578181015183820152602001610ab5565b50505050905090810190601f168015610afa5780820380516001836020036101000a031916815260200191505b509250505060405160208183030381529060405280519060200120816040516020018080602001828103825283818151815260200191508051906020019080838360005b83811015610b56578181015183820152602001610b3e565b50505050905090810190601f168015610b835780820380516001836020036101000a031916815260200191505b5092505050604051602081830303815290604052805190602001201415610bf1576040805162461bcd60e51b815260206004820152601b60248201527f566f74696e6720746f6b656e20616c72656164792061646465642e0000000000604482015290519081900360640190fd5b60008381526002602081815260408084206007810154825160a081018452818152808501899052808401879052426060820181905260808201529589905293835290518651939493600b90920192879282918401908083835b60208310610c695780518252601f199092019160209182019101610c4a565b51815160209384036101000a6000190180199092169116179052920194855250604051938490038101909320845181558484015180519194610cb394506001860193500190611e96565b506040828101516002838101805460ff19169215159290921790915560608401516003840155608090930151600490920191909155600095865260209190915290932060070180546001019055505050565b6001600160a01b038083166000818152600360205260409020549091161415610d7c576001600160a01b03821660009081526003602090815260409091208251610d5792600190920191840190611e96565b506001600160a01b038216600090815260036020526040902042600490910155610e2f565b6040805160a0810182526001600160a01b03848116808352602080840186815233858701524260608601819052608086015260009283526003825294909120835181546001600160a01b03191693169290921782559251805192939192610de99260018501920190611e96565b5060408201516002820180546001600160a01b0319166001600160a01b039092169190911790556060820151600382015560809091015160049091015560018054810190555b5050565b85610e6f5760405162461bcd60e51b8152600401808060200182810382526026815260200180611ffb6026913960400191505060405180910390fd5b84610eab5760405162461bcd60e51b81526004018080602001828103825260228152602001806120216022913960400191505060405180910390fd5b6000868152600260205260409020548614610f08576040805162461bcd60e51b815260206004820152601860248201527722b632b1ba34b7b7103237b2b9903737ba1032bc34b9ba1760411b604482015290519081900360640190fd5b6000868152600260205260409020600301544210610f6d576040805162461bcd60e51b815260206004820152601d60248201527f456c656374696f6e2068617320616c726561647920737461727465642e000000604482015290519081900360640190fd5b6001600160a01b0380841660008181526003602052604090205490911614610fc65760405162461bcd60e51b8152600401808060200182810382526028815260200180611fd36028913960400191505060405180910390fd5b6001600160a01b038083166000818152600360205260409020549091161461101f5760405162461bcd60e51b81526004018080602001828103825260328152602001806120656032913960400191505060405180910390fd5b6001600160a01b03808216600081815260036020526040902054909116146110785760405162461bcd60e51b81526004018080602001828103825260298152602001806120976029913960400191505060405180910390fd5b6000868152600260209081526040808320888452600a0190915290205485141561112f576000868152600260209081526040808320888452600a01825290912085516110cc92600190920191870190611e96565b506000868152600260208181526040808420898552600a0190915290912090810180546001600160a01b038681166001600160a01b031992831617909255600383018054868416908316179055600490920180549184169190921617905561125b565b604080516101208101825286815260208082018781526001600160a01b03808816848601528681166060850152851660808401523360a0840152600060c084018190524260e085018190526101008501528a8152600283528481208a8252600a0183529390932082518155925180519293926111b19260018501920190611e96565b50604082810151600280840180546001600160a01b039384166001600160a01b0319918216179091556060860151600386018054918516918316919091179055608086015160048601805491851691831691909117905560a08601516005860180549190941691161790915560c084015160068085019190915560e08501516007850155610100909401516008909301929092556000898152602092909252902001805460010190555b505050505050565b8361129f5760405162461bcd60e51b8152600401808060200182810382526026815260200180611ffb6026913960400191505060405180910390fd5b60008481526002602052604090205484141561136857600084815260026020526040902060030154421061131a576040805162461bcd60e51b815260206004820152601d60248201527f456c656374696f6e2068617320616c726561647920737461727465642e000000604482015290519081900360640190fd5b6000848152600260209081526040909120845161133f92600190920191860190611e96565b506000848152600260205260409020600381018390556004810182905542600990910155611458565b6040805161014081018252858152602080820186815233838501526060830186905260808301859052600060a0840181905260c0840181905260e08401819052426101008501819052610120850152888152600283529390932082518155925180519293926113dd9260018501920190611e96565b5060408201516002820180546001600160a01b0319166001600160a01b03909216919091179055606082015160038201556080820151600482015560a0820151600582015560c0820151600682015560e082015160078201556101008201516008820155610120909101516009909101556000805460010190555b50505050565b60026020818152600092835260409283902080546001808301805487519281161561010002600019011695909504601f81018590048502820185019096528581529094919390929091908301828280156114f95780601f106114ce576101008083540402835291602001916114f9565b820191906000526020600020905b8154815290600101906020018083116114dc57829003601f168201915b50505060028401546003850154600486015460058701546006880154600789015460088a01546009909a015498996001600160a01b0390961698949750929550909390928a565b600060606000806000611551611f14565b60026000898152602001908152602001600020600b01876040518082805190602001908083835b602083106115975780518252601f199092019160209182019101611578565b518151602093840361010090810a600019908101801990941693909216929092179092529290940196875260408051978890038201882060a0890182528054895260018082018054845160029382161590970290980190971604601f810184900484028501840190925281845296508782019550919392508301828280156116605780601f1061163557610100808354040283529160200191611660565b820191906000526020600020905b81548152906001019060200180831161164357829003601f168201915b5050509183525050600282015460ff16151560208083019190915260038301546040808401919091526004909301546060928301528351908401519284015191840151608090940151909c929b509099509197509095509350505050565b60005481565b826117005760405162461bcd60e51b8152600401808060200182810382526026815260200180611ffb6026913960400191505060405180910390fd5b600083815260026020526040902054831461175d576040805162461bcd60e51b815260206004820152601860248201527722b632b1ba34b7b7103237b2b9903737ba1032bc34b9ba1760411b604482015290519081900360640190fd5b606060026000858152602001908152602001600020600b01826040518082805190602001908083835b602083106117a55780518252601f199092019160209182019101611786565b518151600019602094850361010090810a8201928316921993909316919091179092529490920196875260408051978890038201882060019081018054601f6002938216159098029095019094160494850182900482028801820190528387529094509192505083018282801561185d5780601f106118325761010080835404028352916020019161185d565b820191906000526020600020905b81548152906001019060200180831161184057829003601f168201915b50505050509050816040516020018080602001828103825283818151815260200191508051906020019080838360005b838110156118a557818101518382015260200161188d565b50505050905090810190601f1680156118d25780820380516001836020036101000a031916815260200191505b509250505060405160208183030381529060405280519060200120816040516020018080602001828103825283818151815260200191508051906020019080838360005b8381101561192e578181015183820152602001611916565b50505050905090810190601f16801561195b5780820380516001836020036101000a031916815260200191505b509250505060405160208183030381529060405280519060200120146119c8576040805162461bcd60e51b815260206004820152601c60248201527f566f74696e6720746f6b656e20646f6573206e6f742065786973742e00000000604482015290519081900360640190fd5b60026000858152602001908152602001600020600b01826040518082805190602001908083835b60208310611a0e5780518252601f1990920191602091820191016119ef565b51815160209384036101000a600019018019909216911617905292019485525060405193849003019092206002015460ff16159150611a8090505760405162461bcd60e51b81526004018080602001828103825260228152602001806120436022913960400191505060405180910390fd5b6000848152600260209081526040808320868452600a019091529020548314611ae7576040805162461bcd60e51b81526020600482015260146024820152732a32b0b6903237b2b9903737ba1032bc34b9ba1760611b604482015290519081900360640190fd5b8260026000868152602001908152602001600020600b01836040518082805190602001908083835b60208310611b2e5780518252601f199092019160209182019101611b0f565b51815160209384036101000a600019018019909216911617905292019485525060408051948590038201852095909555600089815260028252949094208651600195600b90920194889450925082918401908083835b60208310611ba35780518252601f199092019160209182019101611b84565b51815160209384036101000a60001901801990921691161790529201948552506040805194859003820185206002908101805460ff19169715159790971790965560008a815295825290942086514295600b90920194889450925082918401908083835b60208310611c265780518252601f199092019160209182019101611c07565b51815160209384036101000a60001901801990921691161790529201948552506040805194859003820190942060040194909455505060008681526002808452828220968252600a87018452918120600601805460019081019091559690529052505060050180549091019055565b600060606000806000806000806000611cac611f45565b60008c81526002602081815260408084208f8552600a01825292839020835161012081018552815481526001808301805487519281161561010002600019011695909504601f8101859004850282018501909652858152909491938584019391929091830182828015611d605780601f10611d3557610100808354040283529160200191611d60565b820191906000526020600020905b815481529060010190602001808311611d4357829003601f168201915b505050505081526020016002820160009054906101000a90046001600160a01b03166001600160a01b03166001600160a01b031681526020016003820160009054906101000a90046001600160a01b03166001600160a01b03166001600160a01b031681526020016004820160009054906101000a90046001600160a01b03166001600160a01b03166001600160a01b031681526020016005820160009054906101000a90046001600160a01b03166001600160a01b03166001600160a01b0316815260200160068201548152602001600782015481526020016008820154815250509050806000015181602001518260400151836060015184608001518560a001518660c001518760e00151886101000151879750995099509950995099509950995099509950509295985092959850929598565b828054600181600116156101000203166002900490600052602060002090601f016020900481019282601f10611ed757805160ff1916838001178555611f04565b82800160010185558215611f04579182015b82811115611f04578251825591602001919060010190611ee9565b50611f10929150611fb5565b5090565b6040518060a00160405280600081526020016060815260200160001515815260200160008152602001600081525090565b604051806101200160405280600081526020016060815260200160006001600160a01b0316815260200160006001600160a01b0316815260200160006001600160a01b0316815260200160006001600160a01b031681526020016000815260200160008152602001600081525090565b611fcf91905b80821115611f105760008155600101611fbb565b9056fe43686169726d616e494420646f6573206e6f7420657869737420696e206f7572207265636f726473456c656374696f6e49442073686f756c64206e6f7420626520657175616c20746f207a65726f5465616d49442073686f756c64206e6f7420626520657175616c20746f207a65726f566f7465722068617320616c7265616479206361737420746865697220766f74652e5365637265746172792047656e6572616c20494420646f6573206e6f7420657869737420696e206f7572207265636f726473547265617375726572494420646f6573206e6f7420657869737420696e206f7572207265636f726473a265627a7a72315820914cc3ef3ff801449498230c53bcb0f6e12e9c6c3468eb5d66aa35bdf9506d1364736f6c63430005100032",
  "source": "pragma solidity >=0.4.21 <0.7.0;\n\n// a smart contract for \"party block voting\", where parties = teams\n// seriously needs refactoring\ncontract Voting {\n    uint public electionCount = 0;\n    uint public aspirantCount = 0;\n\n    struct Election {\n        uint electionId;\n        string name;\n        address addedBy;\n        uint start_timestamp;\n        uint end_timestamp;\n        uint voteCount;\n        uint teamCount;\n        uint tokenCount;\n        uint addedAt;\n        uint updatedAt;\n        mapping(uint => Team) teams;\n        mapping(string => Ballot) votingTokens;\n    }\n\n    struct Aspirant {\n        address aspirantId;\n        string name;\n        address addedBy;\n        uint addedAt;\n        uint updatedAt;\n    }\n\n    struct Team {\n        uint teamId;\n        string name;\n        address chairmanId;\n        address secGenId;\n        address treasurerId;\n        address addedBy;\n        uint votes;\n        uint addedAt;\n        uint updatedAt;\n    }\n\n    struct Ballot {\n        uint teamId;\n        string votingToken;\n        bool cast;\n        uint addedAt;\n        uint updatedAt;\n    }\n\n    mapping(uint => Election) public elections;\n    mapping(address => Aspirant) public aspirants;\n\n    function setElection(uint _electionId, string memory _name, uint _start_timestamp, uint _end_timestamp) public {\n        require(_electionId != 0, \"ElectionID should not be equal to zero\");\n        if (elections[_electionId].electionId == _electionId) {\n            require(now < elections[_electionId].start_timestamp, \"Election has already started.\");\n            elections[_electionId].name = _name;\n            elections[_electionId].start_timestamp = _start_timestamp;\n            elections[_electionId].end_timestamp = _end_timestamp;\n            elections[_electionId].updatedAt = now;\n        } else {\n            elections[_electionId] = Election(_electionId, _name, msg.sender, _start_timestamp, _end_timestamp, 0, 0, 0, now, now);\n            electionCount++;\n        }\n    }\n\n\n    function setAspirant(address _aspirantAddress, string memory _name) public {\n        if (aspirants[_aspirantAddress].aspirantId == _aspirantAddress) {\n            aspirants[_aspirantAddress].name = _name;\n            aspirants[_aspirantAddress].updatedAt = now;\n        } else {\n            aspirants[_aspirantAddress] = Aspirant(_aspirantAddress, _name, msg.sender, now, now);\n            aspirantCount++;\n        }\n    }\n\n    function setTeam(uint _electionId, uint _teamId, string memory _name, address _chairmanId, address _secGenId, address _treasurerId) public {\n        require(_electionId != 0, \"ElectionID should not be equal to zero\");\n        require(_teamId != 0, \"TeamID should not be equal to zero\");\n        require(elections[_electionId].electionId == _electionId, \"Election does not exist.\");\n        require(now < elections[_electionId].start_timestamp, \"Election has already started.\");\n        require(aspirants[_chairmanId].aspirantId == _chairmanId, \"ChairmanID does not exist in our records\");\n        require(aspirants[_secGenId].aspirantId == _secGenId, \"Secretary General ID does not exist in our records\");\n        require(aspirants[_treasurerId].aspirantId == _treasurerId, \"TreasurerID does not exist in our records\");\n        if (elections[_electionId].teams[_teamId].teamId == _teamId) {\n            elections[_electionId].teams[_teamId].name = _name;\n            elections[_electionId].teams[_teamId].chairmanId = _chairmanId;\n            elections[_electionId].teams[_teamId].secGenId = _secGenId;\n            elections[_electionId].teams[_teamId].treasurerId = _treasurerId;\n        } else {\n            elections[_electionId].teams[_teamId] = Team(_teamId, _name, _chairmanId, _secGenId, _treasurerId, msg.sender, 0, now, now);\n            elections[_electionId].teamCount++;\n        }\n    }\n\n    function setVotingToken(uint _electionId, string memory _token) public {\n        require(_electionId != 0, \"ElectionID should not be equal to zero\");\n        require(now < elections[_electionId].start_timestamp, \"Election has already started.\");\n        string memory storedToken = elections[_electionId].votingTokens[_token].votingToken;\n        require(keccak256(abi.encode(storedToken)) != keccak256(abi.encode(_token)), \"Voting token already added.\");\n        uint tokenCount = elections[_electionId].tokenCount;\n        elections[_electionId].votingTokens[_token] = Ballot(tokenCount, _token, false, now, now);\n        elections[_electionId].tokenCount++;\n    }\n\n    function cast(uint _electionId, uint _teamId, string memory _votingToken) public {\n        require(_electionId != 0, \"ElectionID should not be equal to zero\");\n        require(elections[_electionId].electionId == _electionId, \"Election does not exist.\");\n        string memory storedToken = elections[_electionId].votingTokens[_votingToken].votingToken;\n        require(keccak256(abi.encode(storedToken)) == keccak256(abi.encode(_votingToken)), \"Voting token does not exist.\");\n        require(!elections[_electionId].votingTokens[_votingToken].cast, \"Voter has already cast their vote.\");\n        require(elections[_electionId].teams[_teamId].teamId == _teamId, \"Team does not exist.\");\n\n        // register the vote\n        elections[_electionId].votingTokens[_votingToken].teamId = _teamId;\n        elections[_electionId].votingTokens[_votingToken].cast = true;\n        elections[_electionId].votingTokens[_votingToken].updatedAt = now;\n        elections[_electionId].teams[_teamId].votes++;\n        elections[_electionId].voteCount++;\n    }\n\n    function getTeam(uint _electionId, uint _teamId) public view returns (uint teamId, string memory name, address chairmanId, address secGenId, \n    address treasurerId, address addedBy, uint votes, uint addedAt, uint updatedAt) {\n\n        Team memory t = elections[_electionId].teams[_teamId];\n        return (t.teamId, t.name, t.chairmanId, t.secGenId, t.treasurerId, t.addedBy, t.votes, t.addedAt, t.updatedAt);\n    }\n\n    function getBallot(uint _electionId, string memory _token) public view returns (uint teamId, string memory votingToken, bool voted, \n    uint addedAt, uint updatedAt) {\n        Ballot memory b = elections[_electionId].votingTokens[_token];\n        return (b.teamId, b.votingToken, b.cast, b.addedAt, b.updatedAt);\n    }\n}\n",
  "sourcePath": "/home/stephen/Projects/todo/contracts/Voting.sol",
  "compiler": {
    "name": "solc",
    "version": "0.5.16+commit.9c3226ce.Emscripten.clang"
  },
  "schemaVersion": "3.0.23",
  "updatedAt": "2020-03-18T19:16:20.812Z",
  "networkType": "ethereum",
  "devdoc": {
    "methods": {}
  },
  "userdoc": {
    "methods": {}
  }
}